{
  "contractName": "Transact",
  "abi": [
    {
      "inputs": [
        {
          "internalType": "string",
          "name": "pk",
          "type": "string"
        },
        {
          "internalType": "uint256",
          "name": "amount",
          "type": "uint256"
        }
      ],
      "name": "create_wallet",
      "outputs": [],
      "stateMutability": "nonpayable",
      "type": "function"
    },
    {
      "inputs": [
        {
          "internalType": "string",
          "name": "pk",
          "type": "string"
        },
        {
          "internalType": "string",
          "name": "new_pk",
          "type": "string"
        }
      ],
      "name": "_transfer",
      "outputs": [
        {
          "internalType": "string",
          "name": "",
          "type": "string"
        }
      ],
      "stateMutability": "nonpayable",
      "type": "function"
    },
    {
      "inputs": [
        {
          "internalType": "string",
          "name": "pk",
          "type": "string"
        }
      ],
      "name": "get_amount",
      "outputs": [
        {
          "internalType": "uint256",
          "name": "",
          "type": "uint256"
        }
      ],
      "stateMutability": "view",
      "type": "function",
      "constant": true
    }
  ],
  "bytecode": "0x608060405234801561001057600080fd5b50610646806100206000396000f3fe608060405234801561001057600080fd5b50600436106100415760003560e01c806313f416991461004657806356517e9b14610076578063738e3e1a14610092575b600080fd5b610060600480360381019061005b9190610311565b6100c2565b60405161006d9190610373565b60405180910390f35b610090600480360381019061008b91906103ba565b6100e9565b005b6100ac60048036038101906100a79190610416565b610110565b6040516100b99190610516565b60405180910390f35b600080826040516100d39190610574565b9081526020016040518091039020549050919050565b806000836040516100fa9190610574565b9081526020016040518091039020819055505050565b6060600080846040516101239190610574565b908152602001604051809103902054146101ae576000836040516101479190610574565b9081526020016040518091039020546000836040516101669190610574565b9081526020016040518091039020600082825461018391906105ba565b925050819055506000808460405161019b9190610574565b9081526020016040518091039020819055505b81905092915050565b6000604051905090565b600080fd5b600080fd5b600080fd5b600080fd5b6000601f19601f8301169050919050565b7f4e487b7100000000000000000000000000000000000000000000000000000000600052604160045260246000fd5b61021e826101d5565b810181811067ffffffffffffffff8211171561023d5761023c6101e6565b5b80604052505050565b60006102506101b7565b905061025c8282610215565b919050565b600067ffffffffffffffff82111561027c5761027b6101e6565b5b610285826101d5565b9050602081019050919050565b82818337600083830152505050565b60006102b46102af84610261565b610246565b9050828152602081018484840111156102d0576102cf6101d0565b5b6102db848285610292565b509392505050565b600082601f8301126102f8576102f76101cb565b5b81356103088482602086016102a1565b91505092915050565b600060208284031215610327576103266101c1565b5b600082013567ffffffffffffffff811115610345576103446101c6565b5b610351848285016102e3565b91505092915050565b6000819050919050565b61036d8161035a565b82525050565b60006020820190506103886000830184610364565b92915050565b6103978161035a565b81146103a257600080fd5b50565b6000813590506103b48161038e565b92915050565b600080604083850312156103d1576103d06101c1565b5b600083013567ffffffffffffffff8111156103ef576103ee6101c6565b5b6103fb858286016102e3565b925050602061040c858286016103a5565b9150509250929050565b6000806040838503121561042d5761042c6101c1565b5b600083013567ffffffffffffffff81111561044b5761044a6101c6565b5b610457858286016102e3565b925050602083013567ffffffffffffffff811115610478576104776101c6565b5b610484858286016102e3565b9150509250929050565b600081519050919050565b600082825260208201905092915050565b60005b838110156104c85780820151818401526020810190506104ad565b838111156104d7576000848401525b50505050565b60006104e88261048e565b6104f28185610499565b93506105028185602086016104aa565b61050b816101d5565b840191505092915050565b6000602082019050818103600083015261053081846104dd565b905092915050565b600081905092915050565b600061054e8261048e565b6105588185610538565b93506105688185602086016104aa565b80840191505092915050565b60006105808284610543565b915081905092915050565b7f4e487b7100000000000000000000000000000000000000000000000000000000600052601160045260246000fd5b60006105c58261035a565b91506105d08361035a565b9250827fffffffffffffffffffffffffffffffffffffffffffffffffffffffffffffffff038211156106055761060461058b565b5b82820190509291505056fea2646970667358221220c238761b38a4c371574c6555fd950a28bc1177700689812742397600801158ca64736f6c63430008090033",
  "immutableReferences": {},
  "source": "// SPDX-License-Identifier: MIT\npragma solidity >=0.4.22 <0.9.0;\n\ncontract Transact{\n\n    mapping(string => uint) balances;\n\n    //creating new wallet\n    function create_wallet(string memory pk, uint amount)public{\n         \n        balances[pk] = amount;\n    }\n\n    //sending founds function\n    function _transfer(string memory pk, string memory new_pk) public returns(string memory){\n        if (balances[pk] != 0){\n            balances[new_pk] += balances[pk];\n            balances[pk] = 0;\n        }\n        return new_pk;\n    }\n    \n    //show founds for user\n    function get_amount(string memory pk) public view returns(uint){\n        return balances[pk];\n    }\n\n}",
  "sourcePath": "/home/tanya/generate_wallet/contracts/Transaction.sol",
  "compiler": {
    "name": "solc",
    "version": "0.8.9+commit.e5eed63a.Emscripten.clang"
  },
  "schemaVersion": "3.4.3",
  "updatedAt": "2021-12-20T13:20:25.151Z",
  "networkType": "ethereum",
  "devdoc": {
    "kind": "dev",
    "methods": {},
    "version": 1
  },
  "userdoc": {
    "kind": "user",
    "methods": {},
    "version": 1
  }
}